{
  "_format": "hh-sol-artifact-1",
  "contractName": "Marketplace",
  "sourceName": "contracts/Marketplace.sol",
  "abi": [
    {
      "inputs": [],
      "stateMutability": "nonpayable",
      "type": "constructor"
    },
    {
      "anonymous": false,
      "inputs": [
        {
          "indexed": true,
          "internalType": "address",
          "name": "owner",
          "type": "address"
        },
        {
          "indexed": true,
          "internalType": "address",
          "name": "approved",
          "type": "address"
        },
        {
          "indexed": true,
          "internalType": "uint256",
          "name": "tokenId",
          "type": "uint256"
        }
      ],
      "name": "Approval",
      "type": "event"
    },
    {
      "anonymous": false,
      "inputs": [
        {
          "indexed": true,
          "internalType": "address",
          "name": "owner",
          "type": "address"
        },
        {
          "indexed": true,
          "internalType": "address",
          "name": "operator",
          "type": "address"
        },
        {
          "indexed": false,
          "internalType": "bool",
          "name": "approved",
          "type": "bool"
        }
      ],
      "name": "ApprovalForAll",
      "type": "event"
    },
    {
      "anonymous": false,
      "inputs": [
        {
          "indexed": false,
          "internalType": "uint256",
          "name": "_fromTokenId",
          "type": "uint256"
        },
        {
          "indexed": false,
          "internalType": "uint256",
          "name": "_toTokenId",
          "type": "uint256"
        }
      ],
      "name": "BatchMetadataUpdate",
      "type": "event"
    },
    {
      "anonymous": false,
      "inputs": [
        {
          "indexed": false,
          "internalType": "uint256",
          "name": "_tokenId",
          "type": "uint256"
        }
      ],
      "name": "MetadataUpdate",
      "type": "event"
    },
    {
      "anonymous": false,
      "inputs": [
        {
          "indexed": true,
          "internalType": "address",
          "name": "from",
          "type": "address"
        },
        {
          "indexed": true,
          "internalType": "address",
          "name": "to",
          "type": "address"
        },
        {
          "indexed": true,
          "internalType": "uint256",
          "name": "tokenId",
          "type": "uint256"
        }
      ],
      "name": "Transfer",
      "type": "event"
    },
    {
      "anonymous": false,
      "inputs": [
        {
          "indexed": true,
          "internalType": "uint256",
          "name": "tokenId",
          "type": "uint256"
        },
        {
          "indexed": false,
          "internalType": "address",
          "name": "seller",
          "type": "address"
        },
        {
          "indexed": false,
          "internalType": "address",
          "name": "owner",
          "type": "address"
        },
        {
          "indexed": false,
          "internalType": "uint256",
          "name": "price",
          "type": "uint256"
        },
        {
          "indexed": false,
          "internalType": "bool",
          "name": "sold",
          "type": "bool"
        }
      ],
      "name": "idMarketItemCreated",
      "type": "event"
    },
    {
      "inputs": [
        {
          "internalType": "address",
          "name": "to",
          "type": "address"
        },
        {
          "internalType": "uint256",
          "name": "tokenId",
          "type": "uint256"
        }
      ],
      "name": "approve",
      "outputs": [],
      "stateMutability": "nonpayable",
      "type": "function"
    },
    {
      "inputs": [
        {
          "internalType": "address",
          "name": "owner",
          "type": "address"
        }
      ],
      "name": "balanceOf",
      "outputs": [
        {
          "internalType": "uint256",
          "name": "",
          "type": "uint256"
        }
      ],
      "stateMutability": "view",
      "type": "function"
    },
    {
      "inputs": [
        {
          "internalType": "uint256",
          "name": "tokenId",
          "type": "uint256"
        }
      ],
      "name": "createMarketSale",
      "outputs": [],
      "stateMutability": "payable",
      "type": "function"
    },
    {
      "inputs": [
        {
          "internalType": "string",
          "name": "tokenURI",
          "type": "string"
        },
        {
          "internalType": "uint256",
          "name": "price",
          "type": "uint256"
        }
      ],
      "name": "createToken",
      "outputs": [
        {
          "internalType": "uint256",
          "name": "",
          "type": "uint256"
        }
      ],
      "stateMutability": "payable",
      "type": "function"
    },
    {
      "inputs": [],
      "name": "fetchItemsListed",
      "outputs": [
        {
          "components": [
            {
              "internalType": "uint256",
              "name": "tokenId",
              "type": "uint256"
            },
            {
              "internalType": "address payable",
              "name": "seller",
              "type": "address"
            },
            {
              "internalType": "address payable",
              "name": "owner",
              "type": "address"
            },
            {
              "internalType": "uint256",
              "name": "price",
              "type": "uint256"
            },
            {
              "internalType": "bool",
              "name": "sold",
              "type": "bool"
            }
          ],
          "internalType": "struct Marketplace.MarketItem[]",
          "name": "",
          "type": "tuple[]"
        }
      ],
      "stateMutability": "view",
      "type": "function"
    },
    {
      "inputs": [],
      "name": "fetchMarketItem",
      "outputs": [
        {
          "components": [
            {
              "internalType": "uint256",
              "name": "tokenId",
              "type": "uint256"
            },
            {
              "internalType": "address payable",
              "name": "seller",
              "type": "address"
            },
            {
              "internalType": "address payable",
              "name": "owner",
              "type": "address"
            },
            {
              "internalType": "uint256",
              "name": "price",
              "type": "uint256"
            },
            {
              "internalType": "bool",
              "name": "sold",
              "type": "bool"
            }
          ],
          "internalType": "struct Marketplace.MarketItem[]",
          "name": "",
          "type": "tuple[]"
        }
      ],
      "stateMutability": "view",
      "type": "function"
    },
    {
      "inputs": [],
      "name": "fetchMyNFT",
      "outputs": [
        {
          "components": [
            {
              "internalType": "uint256",
              "name": "tokenId",
              "type": "uint256"
            },
            {
              "internalType": "address payable",
              "name": "seller",
              "type": "address"
            },
            {
              "internalType": "address payable",
              "name": "owner",
              "type": "address"
            },
            {
              "internalType": "uint256",
              "name": "price",
              "type": "uint256"
            },
            {
              "internalType": "bool",
              "name": "sold",
              "type": "bool"
            }
          ],
          "internalType": "struct Marketplace.MarketItem[]",
          "name": "",
          "type": "tuple[]"
        }
      ],
      "stateMutability": "view",
      "type": "function"
    },
    {
      "inputs": [
        {
          "internalType": "uint256",
          "name": "tokenId",
          "type": "uint256"
        }
      ],
      "name": "getApproved",
      "outputs": [
        {
          "internalType": "address",
          "name": "",
          "type": "address"
        }
      ],
      "stateMutability": "view",
      "type": "function"
    },
    {
      "inputs": [],
      "name": "getListingPrice",
      "outputs": [
        {
          "internalType": "uint256",
          "name": "",
          "type": "uint256"
        }
      ],
      "stateMutability": "view",
      "type": "function"
    },
    {
      "inputs": [
        {
          "internalType": "address",
          "name": "owner",
          "type": "address"
        },
        {
          "internalType": "address",
          "name": "operator",
          "type": "address"
        }
      ],
      "name": "isApprovedForAll",
      "outputs": [
        {
          "internalType": "bool",
          "name": "",
          "type": "bool"
        }
      ],
      "stateMutability": "view",
      "type": "function"
    },
    {
      "inputs": [],
      "name": "name",
      "outputs": [
        {
          "internalType": "string",
          "name": "",
          "type": "string"
        }
      ],
      "stateMutability": "view",
      "type": "function"
    },
    {
      "inputs": [
        {
          "internalType": "uint256",
          "name": "tokenId",
          "type": "uint256"
        }
      ],
      "name": "ownerOf",
      "outputs": [
        {
          "internalType": "address",
          "name": "",
          "type": "address"
        }
      ],
      "stateMutability": "view",
      "type": "function"
    },
    {
      "inputs": [
        {
          "internalType": "uint256",
          "name": "tokenId",
          "type": "uint256"
        },
        {
          "internalType": "uint256",
          "name": "price",
          "type": "uint256"
        }
      ],
      "name": "resellToken",
      "outputs": [],
      "stateMutability": "payable",
      "type": "function"
    },
    {
      "inputs": [
        {
          "internalType": "address",
          "name": "from",
          "type": "address"
        },
        {
          "internalType": "address",
          "name": "to",
          "type": "address"
        },
        {
          "internalType": "uint256",
          "name": "tokenId",
          "type": "uint256"
        }
      ],
      "name": "safeTransferFrom",
      "outputs": [],
      "stateMutability": "nonpayable",
      "type": "function"
    },
    {
      "inputs": [
        {
          "internalType": "address",
          "name": "from",
          "type": "address"
        },
        {
          "internalType": "address",
          "name": "to",
          "type": "address"
        },
        {
          "internalType": "uint256",
          "name": "tokenId",
          "type": "uint256"
        },
        {
          "internalType": "bytes",
          "name": "data",
          "type": "bytes"
        }
      ],
      "name": "safeTransferFrom",
      "outputs": [],
      "stateMutability": "nonpayable",
      "type": "function"
    },
    {
      "inputs": [
        {
          "internalType": "address",
          "name": "operator",
          "type": "address"
        },
        {
          "internalType": "bool",
          "name": "approved",
          "type": "bool"
        }
      ],
      "name": "setApprovalForAll",
      "outputs": [],
      "stateMutability": "nonpayable",
      "type": "function"
    },
    {
      "inputs": [
        {
          "internalType": "bytes4",
          "name": "interfaceId",
          "type": "bytes4"
        }
      ],
      "name": "supportsInterface",
      "outputs": [
        {
          "internalType": "bool",
          "name": "",
          "type": "bool"
        }
      ],
      "stateMutability": "view",
      "type": "function"
    },
    {
      "inputs": [],
      "name": "symbol",
      "outputs": [
        {
          "internalType": "string",
          "name": "",
          "type": "string"
        }
      ],
      "stateMutability": "view",
      "type": "function"
    },
    {
      "inputs": [
        {
          "internalType": "uint256",
          "name": "tokenId",
          "type": "uint256"
        }
      ],
      "name": "tokenURI",
      "outputs": [
        {
          "internalType": "string",
          "name": "",
          "type": "string"
        }
      ],
      "stateMutability": "view",
      "type": "function"
    },
    {
      "inputs": [
        {
          "internalType": "address",
          "name": "from",
          "type": "address"
        },
        {
          "internalType": "address",
          "name": "to",
          "type": "address"
        },
        {
          "internalType": "uint256",
          "name": "tokenId",
          "type": "uint256"
        }
      ],
      "name": "transferFrom",
      "outputs": [],
      "stateMutability": "nonpayable",
      "type": "function"
    },
    {
      "inputs": [
        {
          "internalType": "uint256",
          "name": "_listingPrice",
          "type": "uint256"
        }
      ],
      "name": "updateListingPrice",
      "outputs": [],
      "stateMutability": "payable",
      "type": "function"
    }
  ],
  "bytecode": "0x60806040526605543df729c0006009553480156200001c57600080fd5b506040518060400160405280600e81526020017f444d696e6444414f20546f6b656e0000000000000000000000000000000000008152506040518060400160405280600881526020017f444d696e644e465400000000000000000000000000000000000000000000000081525081600090816200009a919062000355565b508060019081620000ac919062000355565b5050503373ffffffffffffffffffffffffffffffffffffffff16600a60009054906101000a905050506200043c565b600081519050919050565b7f4e487b7100000000000000000000000000000000000000000000000000000000600052604160045260246000fd5b7f4e487b7100000000000000000000000000000000000000000000000000000000600052602260045260246000fd5b600060028204905060018216806200015d57607f821691505b60208210810362000173576200017262000115565b5b50919050565b60008190508160005260206000209050919050565b60006020601f8301049050919050565b600082821b905092915050565b600060088302620001dd7fffffffffffffffffffffffffffffffffffffffffffffffffffffffffffffffff826200019e565b620001e986836200019e565b95508019841693508086168417925050509392505050565b6000819050919050565b6000819050919050565b600062000236620002306200022a8462000201565b6200020b565b62000201565b9050919050565b6000819050919050565b620002528362000215565b6200026a62000261826200023d565b848454620001ab565b825550505050565b600090565b6200028162000272565b6200028e81848462000247565b505050565b5b81811015620002b657620002aa60008262000277565b60018101905062000294565b5050565b601f8211156200030557620002cf8162000179565b620002da846200018e565b81016020851015620002ea578190505b62000302620002f9856200018e565b83018262000293565b50505b505050565b600082821c905092915050565b60006200032a600019846008026200030a565b1980831691505092915050565b600062000345838362000317565b9150826002028217905092915050565b6200036082620000db565b67ffffffffffffffff8111156200037c576200037b620000e6565b5b62000388825462000144565b62000395828285620002ba565b600060209050601f831160018114620003cd5760008415620003b8578287015190505b620003c4858262000337565b86555062000434565b601f198416620003dd8662000179565b60005b828110156200040757848901518255600182019150602085019450602081019050620003e0565b8683101562000427578489015162000423601f89168262000317565b8355505b6001600288020188555050505b505050505050565b6142a5806200044c6000396000f3fe60806040526004361061012a5760003560e01c806372b3b620116100ab578063b88d4fde1161006f578063b88d4fde146103ea578063be9af53614610413578063c18763f71461042f578063c87b56dd1461045a578063e219fc7514610497578063e985e9c5146104b35761012a565b806372b3b6201461031f5780638fafd0211461034f57806395d89b411461037a578063a22cb465146103a5578063ae677aa3146103ce5761012a565b806323b872dd116100f257806323b872dd1461022857806342842e0e1461025157806345f8fa801461027a5780636352211e146102a557806370a08231146102e25761012a565b806301ffc9a71461012f57806306fdde031461016c578063081812fc14610197578063095ea7b3146101d457806312e85585146101fd575b600080fd5b34801561013b57600080fd5b5061015660048036038101906101519190612b8f565b6104f0565b6040516101639190612bd7565b60405180910390f35b34801561017857600080fd5b50610181610551565b60405161018e9190612c82565b60405180910390f35b3480156101a357600080fd5b506101be60048036038101906101b99190612cda565b6105e3565b6040516101cb9190612d48565b60405180910390f35b3480156101e057600080fd5b506101fb60048036038101906101f69190612d8f565b610629565b005b34801561020957600080fd5b50610212610740565b60405161021f9190612dde565b60405180910390f35b34801561023457600080fd5b5061024f600480360381019061024a9190612df9565b61074a565b005b34801561025d57600080fd5b5061027860048036038101906102739190612df9565b6107aa565b005b34801561028657600080fd5b5061028f6107ca565b60405161029c9190612fa2565b60405180910390f35b3480156102b157600080fd5b506102cc60048036038101906102c79190612cda565b610ab6565b6040516102d99190612d48565b60405180910390f35b3480156102ee57600080fd5b5061030960048036038101906103049190612fc4565b610b3c565b6040516103169190612dde565b60405180910390f35b61033960048036038101906103349190613126565b610bf3565b6040516103469190612dde565b60405180910390f35b34801561035b57600080fd5b50610364610c35565b6040516103719190612fa2565b60405180910390f35b34801561038657600080fd5b5061038f610e9d565b60405161039c9190612c82565b60405180910390f35b3480156103b157600080fd5b506103cc60048036038101906103c791906131ae565b610f2f565b005b6103e860048036038101906103e39190612cda565b610f45565b005b3480156103f657600080fd5b50610411600480360381019061040c919061328f565b610fdf565b005b61042d60048036038101906104289190612cda565b611041565b005b34801561043b57600080fd5b50610444611279565b6040516104519190612fa2565b60405180910390f35b34801561046657600080fd5b50610481600480360381019061047c9190612cda565b611565565b60405161048e9190612c82565b60405180910390f35b6104b160048036038101906104ac9190613312565b611677565b005b3480156104bf57600080fd5b506104da60048036038101906104d59190613352565b61186c565b6040516104e79190612bd7565b60405180910390f35b6000634906490660e01b7bffffffffffffffffffffffffffffffffffffffffffffffffffffffff1916827bffffffffffffffffffffffffffffffffffffffffffffffffffffffff1916148061054a575061054982611900565b5b9050919050565b606060008054610560906133c1565b80601f016020809104026020016040519081016040528092919081815260200182805461058c906133c1565b80156105d95780601f106105ae576101008083540402835291602001916105d9565b820191906000526020600020905b8154815290600101906020018083116105bc57829003601f168201915b5050505050905090565b60006105ee826119e2565b6004600083815260200190815260200160002060009054906101000a900473ffffffffffffffffffffffffffffffffffffffff169050919050565b600061063482610ab6565b90508073ffffffffffffffffffffffffffffffffffffffff168373ffffffffffffffffffffffffffffffffffffffff16036106a4576040517f08c379a000000000000000000000000000000000000000000000000000000000815260040161069b90613464565b60405180910390fd5b8073ffffffffffffffffffffffffffffffffffffffff166106c3611a2d565b73ffffffffffffffffffffffffffffffffffffffff1614806106f257506106f1816106ec611a2d565b61186c565b5b610731576040517f08c379a0000000000000000000000000000000000000000000000000000000008152600401610728906134f6565b60405180910390fd5b61073b8383611a35565b505050565b6000600954905090565b61075b610755611a2d565b82611aee565b61079a576040517f08c379a000000000000000000000000000000000000000000000000000000000815260040161079190613588565b60405180910390fd5b6107a5838383611b83565b505050565b6107c583838360405180602001604052806000815250610fdf565b505050565b606060006107d86007611e7c565b905060008060005b83811015610880573373ffffffffffffffffffffffffffffffffffffffff16600b600060018461081091906135d7565b815260200190815260200160002060010160009054906101000a900473ffffffffffffffffffffffffffffffffffffffff1673ffffffffffffffffffffffffffffffffffffffff160361086d5760018361086a91906135d7565b92505b80806108789061360b565b9150506107e0565b5060008267ffffffffffffffff81111561089d5761089c612ffb565b5b6040519080825280602002602001820160405280156108d657816020015b6108c3612ac6565b8152602001906001900390816108bb5790505b50905060005b84811015610aab573373ffffffffffffffffffffffffffffffffffffffff16600b600060018461090c91906135d7565b815260200190815260200160002060010160009054906101000a900473ffffffffffffffffffffffffffffffffffffffff1673ffffffffffffffffffffffffffffffffffffffff1603610a9857600060018261096891906135d7565b90506000600b60008381526020019081526020016000209050806040518060a0016040529081600082015481526020016001820160009054906101000a900473ffffffffffffffffffffffffffffffffffffffff1673ffffffffffffffffffffffffffffffffffffffff1673ffffffffffffffffffffffffffffffffffffffff1681526020016002820160009054906101000a900473ffffffffffffffffffffffffffffffffffffffff1673ffffffffffffffffffffffffffffffffffffffff1673ffffffffffffffffffffffffffffffffffffffff168152602001600382015481526020016004820160009054906101000a900460ff161515151581525050848681518110610a7b57610a7a613653565b5b6020026020010181905250600185610a9391906135d7565b945050505b8080610aa39061360b565b9150506108dc565b508094505050505090565b600080610ac283611e8a565b9050600073ffffffffffffffffffffffffffffffffffffffff168173ffffffffffffffffffffffffffffffffffffffff1603610b33576040517f08c379a0000000000000000000000000000000000000000000000000000000008152600401610b2a906136ce565b60405180910390fd5b80915050919050565b60008073ffffffffffffffffffffffffffffffffffffffff168273ffffffffffffffffffffffffffffffffffffffff1603610bac576040517f08c379a0000000000000000000000000000000000000000000000000000000008152600401610ba390613760565b60405180910390fd5b600360008373ffffffffffffffffffffffffffffffffffffffff1673ffffffffffffffffffffffffffffffffffffffff168152602001908152602001600020549050919050565b6000610bff6007611ec7565b6000610c0b6007611e7c565b9050610c173382611edd565b610c2181856120fa565b610c2b818461219e565b8091505092915050565b60606000610c436007611e7c565b90506000610c516008611e7c565b610c5b6007611e7c565b610c659190613780565b90506000808267ffffffffffffffff811115610c8457610c83612ffb565b5b604051908082528060200260200182016040528015610cbd57816020015b610caa612ac6565b815260200190600190039081610ca25790505b50905060005b84811015610e92573073ffffffffffffffffffffffffffffffffffffffff16600b6000600184610cf391906135d7565b815260200190815260200160002060020160009054906101000a900473ffffffffffffffffffffffffffffffffffffffff1673ffffffffffffffffffffffffffffffffffffffff1603610e7f576000600182610d4f91906135d7565b90506000600b60008381526020019081526020016000209050806040518060a0016040529081600082015481526020016001820160009054906101000a900473ffffffffffffffffffffffffffffffffffffffff1673ffffffffffffffffffffffffffffffffffffffff1673ffffffffffffffffffffffffffffffffffffffff1681526020016002820160009054906101000a900473ffffffffffffffffffffffffffffffffffffffff1673ffffffffffffffffffffffffffffffffffffffff1673ffffffffffffffffffffffffffffffffffffffff168152602001600382015481526020016004820160009054906101000a900460ff161515151581525050848681518110610e6257610e61613653565b5b6020026020010181905250600185610e7a91906135d7565b945050505b8080610e8a9061360b565b915050610cc3565b508094505050505090565b606060018054610eac906133c1565b80601f0160208091040260200160405190810160405280929190818152602001828054610ed8906133c1565b8015610f255780601f10610efa57610100808354040283529160200191610f25565b820191906000526020600020905b815481529060010190602001808311610f0857829003601f168201915b5050505050905090565b610f41610f3a611a2d565b83836123a1565b5050565b600a60009054906101000a900473ffffffffffffffffffffffffffffffffffffffff1673ffffffffffffffffffffffffffffffffffffffff163373ffffffffffffffffffffffffffffffffffffffff1614610fd5576040517f08c379a0000000000000000000000000000000000000000000000000000000008152600401610fcc90613826565b60405180910390fd5b8060098190555050565b610ff0610fea611a2d565b83611aee565b61102f576040517f08c379a000000000000000000000000000000000000000000000000000000000815260040161102690613588565b60405180910390fd5b61103b8484848461250d565b50505050565b6000600b600083815260200190815260200160002060030154905080341461109e576040517f08c379a000000000000000000000000000000000000000000000000000000000815260040161109590613892565b60405180910390fd5b33600b600084815260200190815260200160002060020160006101000a81548173ffffffffffffffffffffffffffffffffffffffff021916908373ffffffffffffffffffffffffffffffffffffffff1602179055506001600b600084815260200190815260200160002060040160006101000a81548160ff0219169083151502179055506000600b600084815260200190815260200160002060020160006101000a81548173ffffffffffffffffffffffffffffffffffffffff021916908373ffffffffffffffffffffffffffffffffffffffff1602179055506111826008611ec7565b61118d303384611b83565b600a60009054906101000a900473ffffffffffffffffffffffffffffffffffffffff1673ffffffffffffffffffffffffffffffffffffffff166108fc6009549081150290604051600060405180830381858888f193505050501580156111f7573d6000803e3d6000fd5b50600b600083815260200190815260200160002060010160009054906101000a900473ffffffffffffffffffffffffffffffffffffffff1673ffffffffffffffffffffffffffffffffffffffff166108fc349081150290604051600060405180830381858888f19350505050158015611274573d6000803e3d6000fd5b505050565b606060006112876007611e7c565b905060008060005b8381101561132f573373ffffffffffffffffffffffffffffffffffffffff16600b60006001846112bf91906135d7565b815260200190815260200160002060020160009054906101000a900473ffffffffffffffffffffffffffffffffffffffff1673ffffffffffffffffffffffffffffffffffffffff160361131c5760018361131991906135d7565b92505b80806113279061360b565b91505061128f565b5060008267ffffffffffffffff81111561134c5761134b612ffb565b5b60405190808252806020026020018201604052801561138557816020015b611372612ac6565b81526020019060019003908161136a5790505b50905060005b8481101561155a573373ffffffffffffffffffffffffffffffffffffffff16600b60006001846113bb91906135d7565b815260200190815260200160002060020160009054906101000a900473ffffffffffffffffffffffffffffffffffffffff1673ffffffffffffffffffffffffffffffffffffffff160361154757600060018261141791906135d7565b90506000600b60008381526020019081526020016000209050806040518060a0016040529081600082015481526020016001820160009054906101000a900473ffffffffffffffffffffffffffffffffffffffff1673ffffffffffffffffffffffffffffffffffffffff1673ffffffffffffffffffffffffffffffffffffffff1681526020016002820160009054906101000a900473ffffffffffffffffffffffffffffffffffffffff1673ffffffffffffffffffffffffffffffffffffffff1673ffffffffffffffffffffffffffffffffffffffff168152602001600382015481526020016004820160009054906101000a900460ff16151515158152505084868151811061152a57611529613653565b5b602002602001018190525060018561154291906135d7565b945050505b80806115529061360b565b91505061138b565b508094505050505090565b6060611570826119e2565b6000600660008481526020019081526020016000208054611590906133c1565b80601f01602080910402602001604051908101604052809291908181526020018280546115bc906133c1565b80156116095780601f106115de57610100808354040283529160200191611609565b820191906000526020600020905b8154815290600101906020018083116115ec57829003601f168201915b50505050509050600061161a612569565b9050600081510361162f578192505050611672565b60008251111561166457808260405160200161164c9291906138ee565b60405160208183030381529060405292505050611672565b61166d84612580565b925050505b919050565b3373ffffffffffffffffffffffffffffffffffffffff16600b600084815260200190815260200160002060020160009054906101000a900473ffffffffffffffffffffffffffffffffffffffff1673ffffffffffffffffffffffffffffffffffffffff161461171b576040517f08c379a000000000000000000000000000000000000000000000000000000000815260040161171290613984565b60405180910390fd5b600954341461175f576040517f08c379a000000000000000000000000000000000000000000000000000000000815260040161175690613a16565b60405180910390fd5b6000600b600084815260200190815260200160002060040160006101000a81548160ff02191690831515021790555080600b60008481526020019081526020016000206003018190555033600b600084815260200190815260200160002060010160006101000a81548173ffffffffffffffffffffffffffffffffffffffff021916908373ffffffffffffffffffffffffffffffffffffffff16021790555030600b600084815260200190815260200160002060020160006101000a81548173ffffffffffffffffffffffffffffffffffffffff021916908373ffffffffffffffffffffffffffffffffffffffff16021790555061185d60086125e8565b611868333084611b83565b5050565b6000600560008473ffffffffffffffffffffffffffffffffffffffff1673ffffffffffffffffffffffffffffffffffffffff16815260200190815260200160002060008373ffffffffffffffffffffffffffffffffffffffff1673ffffffffffffffffffffffffffffffffffffffff16815260200190815260200160002060009054906101000a900460ff16905092915050565b60007f80ac58cd000000000000000000000000000000000000000000000000000000007bffffffffffffffffffffffffffffffffffffffffffffffffffffffff1916827bffffffffffffffffffffffffffffffffffffffffffffffffffffffff191614806119cb57507f5b5e139f000000000000000000000000000000000000000000000000000000007bffffffffffffffffffffffffffffffffffffffffffffffffffffffff1916827bffffffffffffffffffffffffffffffffffffffffffffffffffffffff1916145b806119db57506119da82612644565b5b9050919050565b6119eb816126ae565b611a2a576040517f08c379a0000000000000000000000000000000000000000000000000000000008152600401611a21906136ce565b60405180910390fd5b50565b600033905090565b816004600083815260200190815260200160002060006101000a81548173ffffffffffffffffffffffffffffffffffffffff021916908373ffffffffffffffffffffffffffffffffffffffff160217905550808273ffffffffffffffffffffffffffffffffffffffff16611aa883610ab6565b73ffffffffffffffffffffffffffffffffffffffff167f8c5be1e5ebec7d5bd14f71427d1e84f3dd0314c0f7b2291e5b200ac8c7c3b92560405160405180910390a45050565b600080611afa83610ab6565b90508073ffffffffffffffffffffffffffffffffffffffff168473ffffffffffffffffffffffffffffffffffffffff161480611b3c5750611b3b818561186c565b5b80611b7a57508373ffffffffffffffffffffffffffffffffffffffff16611b62846105e3565b73ffffffffffffffffffffffffffffffffffffffff16145b91505092915050565b8273ffffffffffffffffffffffffffffffffffffffff16611ba382610ab6565b73ffffffffffffffffffffffffffffffffffffffff1614611bf9576040517f08c379a0000000000000000000000000000000000000000000000000000000008152600401611bf090613aa8565b60405180910390fd5b600073ffffffffffffffffffffffffffffffffffffffff168273ffffffffffffffffffffffffffffffffffffffff1603611c68576040517f08c379a0000000000000000000000000000000000000000000000000000000008152600401611c5f90613b3a565b60405180910390fd5b611c7583838360016126ef565b8273ffffffffffffffffffffffffffffffffffffffff16611c9582610ab6565b73ffffffffffffffffffffffffffffffffffffffff1614611ceb576040517f08c379a0000000000000000000000000000000000000000000000000000000008152600401611ce290613aa8565b60405180910390fd5b6004600082815260200190815260200160002060006101000a81549073ffffffffffffffffffffffffffffffffffffffff02191690556001600360008573ffffffffffffffffffffffffffffffffffffffff1673ffffffffffffffffffffffffffffffffffffffff168152602001908152602001600020600082825403925050819055506001600360008473ffffffffffffffffffffffffffffffffffffffff1673ffffffffffffffffffffffffffffffffffffffff16815260200190815260200160002060008282540192505081905550816002600083815260200190815260200160002060006101000a81548173ffffffffffffffffffffffffffffffffffffffff021916908373ffffffffffffffffffffffffffffffffffffffff160217905550808273ffffffffffffffffffffffffffffffffffffffff168473ffffffffffffffffffffffffffffffffffffffff167fddf252ad1be2c89b69c2b068fc378daa952ba7f163c4a11628f55a4df523b3ef60405160405180910390a4611e7783838360016126f5565b505050565b600081600001549050919050565b60006002600083815260200190815260200160002060009054906101000a900473ffffffffffffffffffffffffffffffffffffffff169050919050565b6001816000016000828254019250508190555050565b600073ffffffffffffffffffffffffffffffffffffffff168273ffffffffffffffffffffffffffffffffffffffff1603611f4c576040517f08c379a0000000000000000000000000000000000000000000000000000000008152600401611f4390613ba6565b60405180910390fd5b611f55816126ae565b15611f95576040517f08c379a0000000000000000000000000000000000000000000000000000000008152600401611f8c90613c12565b60405180910390fd5b611fa36000838360016126ef565b611fac816126ae565b15611fec576040517f08c379a0000000000000000000000000000000000000000000000000000000008152600401611fe390613c12565b60405180910390fd5b6001600360008473ffffffffffffffffffffffffffffffffffffffff1673ffffffffffffffffffffffffffffffffffffffff16815260200190815260200160002060008282540192505081905550816002600083815260200190815260200160002060006101000a81548173ffffffffffffffffffffffffffffffffffffffff021916908373ffffffffffffffffffffffffffffffffffffffff160217905550808273ffffffffffffffffffffffffffffffffffffffff16600073ffffffffffffffffffffffffffffffffffffffff167fddf252ad1be2c89b69c2b068fc378daa952ba7f163c4a11628f55a4df523b3ef60405160405180910390a46120f66000838360016126f5565b5050565b612103826126ae565b612142576040517f08c379a000000000000000000000000000000000000000000000000000000000815260040161213990613ca4565b60405180910390fd5b806006600084815260200190815260200160002090816121629190613e70565b507ff8e1a15aba9398e019f0b49df1a4fde98ee17ae345cb5f6b5e2c27f5033e8ce7826040516121929190612dde565b60405180910390a15050565b600081116121e1576040517f08c379a00000000000000000000000000000000000000000000000000000000081526004016121d890613f8e565b60405180910390fd5b6009543414612225576040517f08c379a000000000000000000000000000000000000000000000000000000000815260040161221c90613a16565b60405180910390fd5b6040518060a001604052808381526020013373ffffffffffffffffffffffffffffffffffffffff1681526020013073ffffffffffffffffffffffffffffffffffffffff16815260200182815260200160001515815250600b60008481526020019081526020016000206000820151816000015560208201518160010160006101000a81548173ffffffffffffffffffffffffffffffffffffffff021916908373ffffffffffffffffffffffffffffffffffffffff16021790555060408201518160020160006101000a81548173ffffffffffffffffffffffffffffffffffffffff021916908373ffffffffffffffffffffffffffffffffffffffff1602179055506060820151816003015560808201518160040160006101000a81548160ff02191690831515021790555090505061235e333084611b83565b817fdebdb32cb5230ab727c9c361b16fdb2015df225c10e6a3e7f60ecd5dc5be451633308460006040516123959493929190613fae565b60405180910390a25050565b8173ffffffffffffffffffffffffffffffffffffffff168373ffffffffffffffffffffffffffffffffffffffff160361240f576040517f08c379a00000000000000000000000000000000000000000000000000000000081526004016124069061403f565b60405180910390fd5b80600560008573ffffffffffffffffffffffffffffffffffffffff1673ffffffffffffffffffffffffffffffffffffffff16815260200190815260200160002060008473ffffffffffffffffffffffffffffffffffffffff1673ffffffffffffffffffffffffffffffffffffffff16815260200190815260200160002060006101000a81548160ff0219169083151502179055508173ffffffffffffffffffffffffffffffffffffffff168373ffffffffffffffffffffffffffffffffffffffff167f17307eab39ab6107e8899845ad3d59bd9653f200f220920489ca2b5937696c31836040516125009190612bd7565b60405180910390a3505050565b612518848484611b83565b612524848484846126fb565b612563576040517f08c379a000000000000000000000000000000000000000000000000000000000815260040161255a906140d1565b60405180910390fd5b50505050565b606060405180602001604052806000815250905090565b606061258b826119e2565b6000612595612569565b905060008151116125b557604051806020016040528060008152506125e0565b806125bf84612882565b6040516020016125d09291906138ee565b6040516020818303038152906040525b915050919050565b60008160000154905060008111612634576040517f08c379a000000000000000000000000000000000000000000000000000000000815260040161262b9061413d565b60405180910390fd5b6001810382600001819055505050565b60007f01ffc9a7000000000000000000000000000000000000000000000000000000007bffffffffffffffffffffffffffffffffffffffffffffffffffffffff1916827bffffffffffffffffffffffffffffffffffffffffffffffffffffffff1916149050919050565b60008073ffffffffffffffffffffffffffffffffffffffff166126d083611e8a565b73ffffffffffffffffffffffffffffffffffffffff1614159050919050565b50505050565b50505050565b600061271c8473ffffffffffffffffffffffffffffffffffffffff16612950565b15612875578373ffffffffffffffffffffffffffffffffffffffff1663150b7a02612745611a2d565b8786866040518563ffffffff1660e01b815260040161276794939291906141b2565b6020604051808303816000875af19250505080156127a357506040513d601f19601f820116820180604052508101906127a09190614213565b60015b612825573d80600081146127d3576040519150601f19603f3d011682016040523d82523d6000602084013e6127d8565b606091505b50600081510361281d576040517f08c379a0000000000000000000000000000000000000000000000000000000008152600401612814906140d1565b60405180910390fd5b805181602001fd5b63150b7a0260e01b7bffffffffffffffffffffffffffffffffffffffffffffffffffffffff1916817bffffffffffffffffffffffffffffffffffffffffffffffffffffffff19161491505061287a565b600190505b949350505050565b60606000600161289184612973565b01905060008167ffffffffffffffff8111156128b0576128af612ffb565b5b6040519080825280601f01601f1916602001820160405280156128e25781602001600182028036833780820191505090505b509050600082602001820190505b600115612945578080600190039150507f3031323334353637383961626364656600000000000000000000000000000000600a86061a8153600a858161293957612938614240565b5b049450600085036128f0575b819350505050919050565b6000808273ffffffffffffffffffffffffffffffffffffffff163b119050919050565b600080600090507a184f03e93ff9f4daa797ed6e38ed64bf6a1f01000000000000000083106129d1577a184f03e93ff9f4daa797ed6e38ed64bf6a1f01000000000000000083816129c7576129c6614240565b5b0492506040810190505b6d04ee2d6d415b85acef81000000008310612a0e576d04ee2d6d415b85acef81000000008381612a0457612a03614240565b5b0492506020810190505b662386f26fc100008310612a3d57662386f26fc100008381612a3357612a32614240565b5b0492506010810190505b6305f5e1008310612a66576305f5e1008381612a5c57612a5b614240565b5b0492506008810190505b6127108310612a8b576127108381612a8157612a80614240565b5b0492506004810190505b60648310612aae5760648381612aa457612aa3614240565b5b0492506002810190505b600a8310612abd576001810190505b80915050919050565b6040518060a0016040528060008152602001600073ffffffffffffffffffffffffffffffffffffffff168152602001600073ffffffffffffffffffffffffffffffffffffffff168152602001600081526020016000151581525090565b6000604051905090565b600080fd5b600080fd5b60007fffffffff0000000000000000000000000000000000000000000000000000000082169050919050565b612b6c81612b37565b8114612b7757600080fd5b50565b600081359050612b8981612b63565b92915050565b600060208284031215612ba557612ba4612b2d565b5b6000612bb384828501612b7a565b91505092915050565b60008115159050919050565b612bd181612bbc565b82525050565b6000602082019050612bec6000830184612bc8565b92915050565b600081519050919050565b600082825260208201905092915050565b60005b83811015612c2c578082015181840152602081019050612c11565b60008484015250505050565b6000601f19601f8301169050919050565b6000612c5482612bf2565b612c5e8185612bfd565b9350612c6e818560208601612c0e565b612c7781612c38565b840191505092915050565b60006020820190508181036000830152612c9c8184612c49565b905092915050565b6000819050919050565b612cb781612ca4565b8114612cc257600080fd5b50565b600081359050612cd481612cae565b92915050565b600060208284031215612cf057612cef612b2d565b5b6000612cfe84828501612cc5565b91505092915050565b600073ffffffffffffffffffffffffffffffffffffffff82169050919050565b6000612d3282612d07565b9050919050565b612d4281612d27565b82525050565b6000602082019050612d5d6000830184612d39565b92915050565b612d6c81612d27565b8114612d7757600080fd5b50565b600081359050612d8981612d63565b92915050565b60008060408385031215612da657612da5612b2d565b5b6000612db485828601612d7a565b9250506020612dc585828601612cc5565b9150509250929050565b612dd881612ca4565b82525050565b6000602082019050612df36000830184612dcf565b92915050565b600080600060608486031215612e1257612e11612b2d565b5b6000612e2086828701612d7a565b9350506020612e3186828701612d7a565b9250506040612e4286828701612cc5565b9150509250925092565b600081519050919050565b600082825260208201905092915050565b6000819050602082019050919050565b612e8181612ca4565b82525050565b6000612e9282612d07565b9050919050565b612ea281612e87565b82525050565b612eb181612bbc565b82525050565b60a082016000820151612ecd6000850182612e78565b506020820151612ee06020850182612e99565b506040820151612ef36040850182612e99565b506060820151612f066060850182612e78565b506080820151612f196080850182612ea8565b50505050565b6000612f2b8383612eb7565b60a08301905092915050565b6000602082019050919050565b6000612f4f82612e4c565b612f598185612e57565b9350612f6483612e68565b8060005b83811015612f95578151612f7c8882612f1f565b9750612f8783612f37565b925050600181019050612f68565b5085935050505092915050565b60006020820190508181036000830152612fbc8184612f44565b905092915050565b600060208284031215612fda57612fd9612b2d565b5b6000612fe884828501612d7a565b91505092915050565b600080fd5b600080fd5b7f4e487b7100000000000000000000000000000000000000000000000000000000600052604160045260246000fd5b61303382612c38565b810181811067ffffffffffffffff8211171561305257613051612ffb565b5b80604052505050565b6000613065612b23565b9050613071828261302a565b919050565b600067ffffffffffffffff82111561309157613090612ffb565b5b61309a82612c38565b9050602081019050919050565b82818337600083830152505050565b60006130c96130c484613076565b61305b565b9050828152602081018484840111156130e5576130e4612ff6565b5b6130f08482856130a7565b509392505050565b600082601f83011261310d5761310c612ff1565b5b813561311d8482602086016130b6565b91505092915050565b6000806040838503121561313d5761313c612b2d565b5b600083013567ffffffffffffffff81111561315b5761315a612b32565b5b613167858286016130f8565b925050602061317885828601612cc5565b9150509250929050565b61318b81612bbc565b811461319657600080fd5b50565b6000813590506131a881613182565b92915050565b600080604083850312156131c5576131c4612b2d565b5b60006131d385828601612d7a565b92505060206131e485828601613199565b9150509250929050565b600067ffffffffffffffff82111561320957613208612ffb565b5b61321282612c38565b9050602081019050919050565b600061323261322d846131ee565b61305b565b90508281526020810184848401111561324e5761324d612ff6565b5b6132598482856130a7565b509392505050565b600082601f83011261327657613275612ff1565b5b813561328684826020860161321f565b91505092915050565b600080600080608085870312156132a9576132a8612b2d565b5b60006132b787828801612d7a565b94505060206132c887828801612d7a565b93505060406132d987828801612cc5565b925050606085013567ffffffffffffffff8111156132fa576132f9612b32565b5b61330687828801613261565b91505092959194509250565b6000806040838503121561332957613328612b2d565b5b600061333785828601612cc5565b925050602061334885828601612cc5565b9150509250929050565b6000806040838503121561336957613368612b2d565b5b600061337785828601612d7a565b925050602061338885828601612d7a565b9150509250929050565b7f4e487b7100000000000000000000000000000000000000000000000000000000600052602260045260246000fd5b600060028204905060018216806133d957607f821691505b6020821081036133ec576133eb613392565b5b50919050565b7f4552433732313a20617070726f76616c20746f2063757272656e74206f776e6560008201527f7200000000000000000000000000000000000000000000000000000000000000602082015250565b600061344e602183612bfd565b9150613459826133f2565b604082019050919050565b6000602082019050818103600083015261347d81613441565b9050919050565b7f4552433732313a20617070726f76652063616c6c6572206973206e6f7420746f60008201527f6b656e206f776e6572206f7220617070726f76656420666f7220616c6c000000602082015250565b60006134e0603d83612bfd565b91506134eb82613484565b604082019050919050565b6000602082019050818103600083015261350f816134d3565b9050919050565b7f4552433732313a2063616c6c6572206973206e6f7420746f6b656e206f776e6560008201527f72206f7220617070726f76656400000000000000000000000000000000000000602082015250565b6000613572602d83612bfd565b915061357d82613516565b604082019050919050565b600060208201905081810360008301526135a181613565565b9050919050565b7f4e487b7100000000000000000000000000000000000000000000000000000000600052601160045260246000fd5b60006135e282612ca4565b91506135ed83612ca4565b9250828201905080821115613605576136046135a8565b5b92915050565b600061361682612ca4565b91507fffffffffffffffffffffffffffffffffffffffffffffffffffffffffffffffff8203613648576136476135a8565b5b600182019050919050565b7f4e487b7100000000000000000000000000000000000000000000000000000000600052603260045260246000fd5b7f4552433732313a20696e76616c696420746f6b656e2049440000000000000000600082015250565b60006136b8601883612bfd565b91506136c382613682565b602082019050919050565b600060208201905081810360008301526136e7816136ab565b9050919050565b7f4552433732313a2061646472657373207a65726f206973206e6f74206120766160008201527f6c6964206f776e65720000000000000000000000000000000000000000000000602082015250565b600061374a602983612bfd565b9150613755826136ee565b604082019050919050565b600060208201905081810360008301526137798161373d565b9050919050565b600061378b82612ca4565b915061379683612ca4565b92508282039050818111156137ae576137ad6135a8565b5b92915050565b7f4f6e6c79206d61726b6574706c616365206f776e65722063616e206368616e6760008201527f6520746865206c697374696e6720707269636500000000000000000000000000602082015250565b6000613810603383612bfd565b915061381b826137b4565b604082019050919050565b6000602082019050818103600083015261383f81613803565b9050919050565b7f54686520707269636520646f6573206e6f74206d617463682e00000000000000600082015250565b600061387c601983612bfd565b915061388782613846565b602082019050919050565b600060208201905081810360008301526138ab8161386f565b9050919050565b600081905092915050565b60006138c882612bf2565b6138d281856138b2565b93506138e2818560208601612c0e565b80840191505092915050565b60006138fa82856138bd565b915061390682846138bd565b91508190509392505050565b7f4f6e6c7920746865206974656d206f776e65722063616e20726573656c6c207460008201527f6865206974656d2e000000000000000000000000000000000000000000000000602082015250565b600061396e602883612bfd565b915061397982613912565b604082019050919050565b6000602082019050818103600083015261399d81613961565b9050919050565b7f5072696365206d75737420626520657175616c20746f206c697374696e67207060008201527f726963652e000000000000000000000000000000000000000000000000000000602082015250565b6000613a00602583612bfd565b9150613a0b826139a4565b604082019050919050565b60006020820190508181036000830152613a2f816139f3565b9050919050565b7f4552433732313a207472616e736665722066726f6d20696e636f72726563742060008201527f6f776e6572000000000000000000000000000000000000000000000000000000602082015250565b6000613a92602583612bfd565b9150613a9d82613a36565b604082019050919050565b60006020820190508181036000830152613ac181613a85565b9050919050565b7f4552433732313a207472616e7366657220746f20746865207a65726f2061646460008201527f7265737300000000000000000000000000000000000000000000000000000000602082015250565b6000613b24602483612bfd565b9150613b2f82613ac8565b604082019050919050565b60006020820190508181036000830152613b5381613b17565b9050919050565b7f4552433732313a206d696e7420746f20746865207a65726f2061646472657373600082015250565b6000613b90602083612bfd565b9150613b9b82613b5a565b602082019050919050565b60006020820190508181036000830152613bbf81613b83565b9050919050565b7f4552433732313a20746f6b656e20616c7265616479206d696e74656400000000600082015250565b6000613bfc601c83612bfd565b9150613c0782613bc6565b602082019050919050565b60006020820190508181036000830152613c2b81613bef565b9050919050565b7f45524337323155524953746f726167653a2055524920736574206f66206e6f6e60008201527f6578697374656e7420746f6b656e000000000000000000000000000000000000602082015250565b6000613c8e602e83612bfd565b9150613c9982613c32565b604082019050919050565b60006020820190508181036000830152613cbd81613c81565b9050919050565b60008190508160005260206000209050919050565b60006020601f8301049050919050565b600082821b905092915050565b600060088302613d267fffffffffffffffffffffffffffffffffffffffffffffffffffffffffffffffff82613ce9565b613d308683613ce9565b95508019841693508086168417925050509392505050565b6000819050919050565b6000613d6d613d68613d6384612ca4565b613d48565b612ca4565b9050919050565b6000819050919050565b613d8783613d52565b613d9b613d9382613d74565b848454613cf6565b825550505050565b600090565b613db0613da3565b613dbb818484613d7e565b505050565b5b81811015613ddf57613dd4600082613da8565b600181019050613dc1565b5050565b601f821115613e2457613df581613cc4565b613dfe84613cd9565b81016020851015613e0d578190505b613e21613e1985613cd9565b830182613dc0565b50505b505050565b600082821c905092915050565b6000613e4760001984600802613e29565b1980831691505092915050565b6000613e608383613e36565b9150826002028217905092915050565b613e7982612bf2565b67ffffffffffffffff811115613e9257613e91612ffb565b5b613e9c82546133c1565b613ea7828285613de3565b600060209050601f831160018114613eda5760008415613ec8578287015190505b613ed28582613e54565b865550613f3a565b601f198416613ee886613cc4565b60005b82811015613f1057848901518255600182019150602085019450602081019050613eeb565b86831015613f2d5784890151613f29601f891682613e36565b8355505b6001600288020188555050505b505050505050565b7f5072696365206d75737420626520626967676572207468616e20302e00000000600082015250565b6000613f78601c83612bfd565b9150613f8382613f42565b602082019050919050565b60006020820190508181036000830152613fa781613f6b565b9050919050565b6000608082019050613fc36000830187612d39565b613fd06020830186612d39565b613fdd6040830185612dcf565b613fea6060830184612bc8565b95945050505050565b7f4552433732313a20617070726f766520746f2063616c6c657200000000000000600082015250565b6000614029601983612bfd565b915061403482613ff3565b602082019050919050565b600060208201905081810360008301526140588161401c565b9050919050565b7f4552433732313a207472616e7366657220746f206e6f6e20455243373231526560008201527f63656976657220696d706c656d656e7465720000000000000000000000000000602082015250565b60006140bb603283612bfd565b91506140c68261405f565b604082019050919050565b600060208201905081810360008301526140ea816140ae565b9050919050565b7f436f756e7465723a2064656372656d656e74206f766572666c6f770000000000600082015250565b6000614127601b83612bfd565b9150614132826140f1565b602082019050919050565b600060208201905081810360008301526141568161411a565b9050919050565b600081519050919050565b600082825260208201905092915050565b60006141848261415d565b61418e8185614168565b935061419e818560208601612c0e565b6141a781612c38565b840191505092915050565b60006080820190506141c76000830187612d39565b6141d46020830186612d39565b6141e16040830185612dcf565b81810360608301526141f38184614179565b905095945050505050565b60008151905061420d81612b63565b92915050565b60006020828403121561422957614228612b2d565b5b6000614237848285016141fe565b91505092915050565b7f4e487b7100000000000000000000000000000000000000000000000000000000600052601260045260246000fdfea2646970667358221220350525f51251953d9068bd2a2fa69e15cad54e62825273e01c774945ab23e5b364736f6c63430008120033",
  "linkReferences": {},
  "deployedLinkReferences": {}
}